S015000053657269616C436F6D333238702E7372656383
S11300000C9434000C9449000C9449000C9449005D
S11300100C9449000C9449000C9449000C94490038
S11300200C9449000C9449000C9449000C94490028
S11300300C9449000C9449000C9449000C94490018
S11300400C9449000C9449000C9449000C94490008
S11300500C9449000C9449000C9449000C944900F8
S11300600C9449000C94490011241FBECFEFD8E032
S1130070DEBFCDBF11E0A0E0B1E0EEEBF1E002C0E5
S113008005900D92A232B107D9F70E94B0000C94EA
S1130090DD000C94000080E090E0000001962FEF5A
S11300A08D3D9207D1F708958091C000807808951E
S11300B08091C000807208958091C00087FFFCCFBA
S11300C08091C6000895982F8091C00085FFFCCFD1
S11300D09093C600089521E43EC08091C00085FF3E
S11300E0FCCF2093C60080E090E0000001963FEF33
S11300F08D3D9307D1F780E090E0000001963FEF3B
S11301008D3D9307D1F780E090E0000001963FEF2A
S11301108D3D9307D1F780E090E0000001963FEF1A
S11301208D3D9307D1F780E090E0000001963FEF0A
S11301308D3D9307D1F780E090E0000001963FEFFA
S11301408D3D9307D1F780E090E0000001963FEFEA
S11301508D3D9307D1F78091C00087FFBECF0895EE
S113016082E08AB98BE284B91092C50087E6809355
S1130170C40088E18093C10086E08093C200299A7C
S11301800E946B0029988091C00087FFFCCF299AB8
S11301908091C00087FFFCCF8091C600E0E0F1E0D1
S11301A090818091C00085FFFCCF9093C60031966A
S11101B081E0E132F807A1F7E5CFF894FFCF24
S11301BE0A416C6578782069732070617469656E84
S11301CE7420616E6420776F6E64657266756C213F
S10501DE0A0011
S9030000FC
